{
  "_format": "hh-sol-artifact-1",
  "contractName": "SimplePool",
  "sourceName": "contracts/SimplePool.sol",
  "abi": [
    {
      "inputs": [
        {
          "internalType": "address",
          "name": "_token0",
          "type": "address"
        },
        {
          "internalType": "address",
          "name": "_token1",
          "type": "address"
        },
        {
          "internalType": "uint256",
          "name": "_feeBps",
          "type": "uint256"
        }
      ],
      "stateMutability": "nonpayable",
      "type": "constructor"
    },
    {
      "anonymous": false,
      "inputs": [
        {
          "indexed": true,
          "internalType": "address",
          "name": "provider",
          "type": "address"
        },
        {
          "indexed": false,
          "internalType": "uint256",
          "name": "amount0",
          "type": "uint256"
        },
        {
          "indexed": false,
          "internalType": "uint256",
          "name": "amount1",
          "type": "uint256"
        },
        {
          "indexed": false,
          "internalType": "uint256",
          "name": "liquidityMinted",
          "type": "uint256"
        }
      ],
      "name": "LiquidityAdded",
      "type": "event"
    },
    {
      "anonymous": false,
      "inputs": [
        {
          "indexed": true,
          "internalType": "address",
          "name": "provider",
          "type": "address"
        },
        {
          "indexed": false,
          "internalType": "uint256",
          "name": "amount0",
          "type": "uint256"
        },
        {
          "indexed": false,
          "internalType": "uint256",
          "name": "amount1",
          "type": "uint256"
        },
        {
          "indexed": false,
          "internalType": "uint256",
          "name": "liquidityBurned",
          "type": "uint256"
        }
      ],
      "name": "LiquidityRemoved",
      "type": "event"
    },
    {
      "anonymous": false,
      "inputs": [
        {
          "indexed": true,
          "internalType": "address",
          "name": "sender",
          "type": "address"
        },
        {
          "indexed": true,
          "internalType": "address",
          "name": "tokenIn",
          "type": "address"
        },
        {
          "indexed": false,
          "internalType": "uint256",
          "name": "amountIn",
          "type": "uint256"
        },
        {
          "indexed": true,
          "internalType": "address",
          "name": "tokenOut",
          "type": "address"
        },
        {
          "indexed": false,
          "internalType": "uint256",
          "name": "amountOut",
          "type": "uint256"
        },
        {
          "indexed": false,
          "internalType": "address",
          "name": "to",
          "type": "address"
        }
      ],
      "name": "Swapped",
      "type": "event"
    },
    {
      "inputs": [
        {
          "internalType": "uint256",
          "name": "amount0",
          "type": "uint256"
        },
        {
          "internalType": "uint256",
          "name": "amount1",
          "type": "uint256"
        }
      ],
      "name": "addLiquidity",
      "outputs": [
        {
          "internalType": "uint256",
          "name": "liquidityMinted",
          "type": "uint256"
        }
      ],
      "stateMutability": "nonpayable",
      "type": "function"
    },
    {
      "inputs": [],
      "name": "feeBps",
      "outputs": [
        {
          "internalType": "uint256",
          "name": "",
          "type": "uint256"
        }
      ],
      "stateMutability": "view",
      "type": "function"
    },
    {
      "inputs": [
        {
          "internalType": "uint256",
          "name": "amountIn",
          "type": "uint256"
        },
        {
          "internalType": "address",
          "name": "tokenIn",
          "type": "address"
        }
      ],
      "name": "getAmountOut",
      "outputs": [
        {
          "internalType": "uint256",
          "name": "amountOut",
          "type": "uint256"
        }
      ],
      "stateMutability": "view",
      "type": "function"
    },
    {
      "inputs": [
        {
          "internalType": "address",
          "name": "",
          "type": "address"
        }
      ],
      "name": "liquidityOf",
      "outputs": [
        {
          "internalType": "uint256",
          "name": "",
          "type": "uint256"
        }
      ],
      "stateMutability": "view",
      "type": "function"
    },
    {
      "inputs": [
        {
          "internalType": "uint256",
          "name": "liquidity",
          "type": "uint256"
        }
      ],
      "name": "removeLiquidity",
      "outputs": [
        {
          "internalType": "uint256",
          "name": "amount0Out",
          "type": "uint256"
        },
        {
          "internalType": "uint256",
          "name": "amount1Out",
          "type": "uint256"
        }
      ],
      "stateMutability": "nonpayable",
      "type": "function"
    },
    {
      "inputs": [],
      "name": "reserve0",
      "outputs": [
        {
          "internalType": "uint256",
          "name": "",
          "type": "uint256"
        }
      ],
      "stateMutability": "view",
      "type": "function"
    },
    {
      "inputs": [],
      "name": "reserve1",
      "outputs": [
        {
          "internalType": "uint256",
          "name": "",
          "type": "uint256"
        }
      ],
      "stateMutability": "view",
      "type": "function"
    },
    {
      "inputs": [
        {
          "internalType": "address",
          "name": "tokenIn",
          "type": "address"
        },
        {
          "internalType": "uint256",
          "name": "amountIn",
          "type": "uint256"
        },
        {
          "internalType": "uint256",
          "name": "minOut",
          "type": "uint256"
        },
        {
          "internalType": "address",
          "name": "to",
          "type": "address"
        }
      ],
      "name": "swapExactIn",
      "outputs": [
        {
          "internalType": "uint256",
          "name": "amountOut",
          "type": "uint256"
        }
      ],
      "stateMutability": "nonpayable",
      "type": "function"
    },
    {
      "inputs": [],
      "name": "token0",
      "outputs": [
        {
          "internalType": "address",
          "name": "",
          "type": "address"
        }
      ],
      "stateMutability": "view",
      "type": "function"
    },
    {
      "inputs": [],
      "name": "token1",
      "outputs": [
        {
          "internalType": "address",
          "name": "",
          "type": "address"
        }
      ],
      "stateMutability": "view",
      "type": "function"
    },
    {
      "inputs": [],
      "name": "totalLiquidity",
      "outputs": [
        {
          "internalType": "uint256",
          "name": "",
          "type": "uint256"
        }
      ],
      "stateMutability": "view",
      "type": "function"
    }
  ],
  "bytecode": "0x60e06040523480156200001157600080fd5b5060405162002316380380620023168339818101604052810190620000379190620002ba565b8173ffffffffffffffffffffffffffffffffffffffff168373ffffffffffffffffffffffffffffffffffffffff1603620000a8576040517f08c379a00000000000000000000000000000000000000000000000000000000081526004016200009f9062000377565b60405180910390fd5b600073ffffffffffffffffffffffffffffffffffffffff168373ffffffffffffffffffffffffffffffffffffffff1614158015620001135750600073ffffffffffffffffffffffffffffffffffffffff168273ffffffffffffffffffffffffffffffffffffffff1614155b62000155576040517f08c379a00000000000000000000000000000000000000000000000000000000081526004016200014c90620003e9565b60405180910390fd5b61271081106200019c576040517f08c379a000000000000000000000000000000000000000000000000000000000815260040162000193906200045b565b60405180910390fd5b8273ffffffffffffffffffffffffffffffffffffffff1660808173ffffffffffffffffffffffffffffffffffffffff16815250508173ffffffffffffffffffffffffffffffffffffffff1660a08173ffffffffffffffffffffffffffffffffffffffff16815250508060c081815250505050506200047d565b600080fd5b600073ffffffffffffffffffffffffffffffffffffffff82169050919050565b600062000247826200021a565b9050919050565b62000259816200023a565b81146200026557600080fd5b50565b60008151905062000279816200024e565b92915050565b6000819050919050565b62000294816200027f565b8114620002a057600080fd5b50565b600081519050620002b48162000289565b92915050565b600080600060608486031215620002d657620002d562000215565b5b6000620002e68682870162000268565b9350506020620002f98682870162000268565b92505060406200030c86828701620002a3565b9150509250925092565b600082825260208201905092915050565b7f73616d6520746f6b656e00000000000000000000000000000000000000000000600082015250565b60006200035f600a8362000316565b91506200036c8262000327565b602082019050919050565b60006020820190508181036000830152620003928162000350565b9050919050565b7f7a65726f00000000000000000000000000000000000000000000000000000000600082015250565b6000620003d160048362000316565b9150620003de8262000399565b602082019050919050565b600060208201905081810360008301526200040481620003c2565b9050919050565b7f6261642066656500000000000000000000000000000000000000000000000000600082015250565b60006200044360078362000316565b915062000450826200040b565b602082019050919050565b60006020820190508181036000830152620004768162000434565b9050919050565b60805160a05160c051611e076200050f6000396000818161027f01526111940152600081816105390152818161079c01528181610b6501528181610c6f01528181610f8801526110450152600081816102550152818161045c015281816106bd01528181610b1001528181610bf601528181610c4901528181610e5e01528181610ff001526110d70152611e076000f3fe608060405234801561001057600080fd5b50600436106100a95760003560e01c80635a76f25e116100715780635a76f25e146101565780639c8f9f23146101745780639cd441da146101a5578063a6220b66146101d5578063d21220a714610205578063f140a35a14610223576100a9565b80630dfe1681146100ae57806315770f92146100cc57806324a9d853146100ea5780633c4750df14610108578063443cb4bc14610138575b600080fd5b6100b6610253565b6040516100c391906112ea565b60405180910390f35b6100d4610277565b6040516100e1919061131e565b60405180910390f35b6100f261027d565b6040516100ff919061131e565b60405180910390f35b610122600480360381019061011d919061136a565b6102a1565b60405161012f919061131e565b60405180910390f35b6101406102b9565b60405161014d919061131e565b60405180910390f35b61015e6102bf565b60405161016b919061131e565b60405180910390f35b61018e600480360381019061018991906113c3565b6102c5565b60405161019c9291906113f0565b60405180910390f35b6101bf60048036038101906101ba9190611419565b61066b565b6040516101cc919061131e565b60405180910390f35b6101ef60048036038101906101ea9190611459565b610a5b565b6040516101fc919061131e565b60405180910390f35b61020d610f86565b60405161021a91906112ea565b60405180910390f35b61023d600480360381019061023891906114c0565b610faa565b60405161024a919061131e565b60405180910390f35b7f000000000000000000000000000000000000000000000000000000000000000081565b60025481565b7f000000000000000000000000000000000000000000000000000000000000000081565b60036020528060005260406000206000915090505481565b60005481565b60015481565b6000806000831161030b576040517f08c379a00000000000000000000000000000000000000000000000000000000081526004016103029061155d565b60405180910390fd5b82600360003373ffffffffffffffffffffffffffffffffffffffff1673ffffffffffffffffffffffffffffffffffffffff16815260200190815260200160002054101561038d576040517f08c379a0000000000000000000000000000000000000000000000000000000008152600401610384906115c9565b60405180910390fd5b6002548360005461039e9190611618565b6103a89190611689565b9150600254836001546103bb9190611618565b6103c59190611689565b905082600360003373ffffffffffffffffffffffffffffffffffffffff1673ffffffffffffffffffffffffffffffffffffffff168152602001908152602001600020600082825461041691906116ba565b92505081905550826002600082825461042f91906116ba565b9250508190555061045a8260005461044791906116ba565b8260015461045591906116ba565b611204565b7f000000000000000000000000000000000000000000000000000000000000000073ffffffffffffffffffffffffffffffffffffffff1663a9059cbb33846040518363ffffffff1660e01b81526004016104b59291906116ee565b6020604051808303816000875af11580156104d4573d6000803e3d6000fd5b505050506040513d601f19601f820116820180604052508101906104f8919061174f565b610537576040517f08c379a000000000000000000000000000000000000000000000000000000000815260040161052e906117c8565b60405180910390fd5b7f000000000000000000000000000000000000000000000000000000000000000073ffffffffffffffffffffffffffffffffffffffff1663a9059cbb33836040518363ffffffff1660e01b81526004016105929291906116ee565b6020604051808303816000875af11580156105b1573d6000803e3d6000fd5b505050506040513d601f19601f820116820180604052508101906105d5919061174f565b610614576040517f08c379a000000000000000000000000000000000000000000000000000000000815260040161060b90611834565b60405180910390fd5b3373ffffffffffffffffffffffffffffffffffffffff167f1dc8bb69df2b8e91fbdcbfcf93d951b3f0000f085a95fe3f7946d6161439245d83838660405161065e93929190611854565b60405180910390a2915091565b6000808311801561067c5750600082115b6106bb576040517f08c379a00000000000000000000000000000000000000000000000000000000081526004016106b2906118d7565b60405180910390fd5b7f000000000000000000000000000000000000000000000000000000000000000073ffffffffffffffffffffffffffffffffffffffff166323b872dd3330866040518463ffffffff1660e01b8152600401610718939291906118f7565b6020604051808303816000875af1158015610737573d6000803e3d6000fd5b505050506040513d601f19601f8201168201806040525081019061075b919061174f565b61079a576040517f08c379a00000000000000000000000000000000000000000000000000000000081526004016107919061197a565b60405180910390fd5b7f000000000000000000000000000000000000000000000000000000000000000073ffffffffffffffffffffffffffffffffffffffff166323b872dd3330856040518463ffffffff1660e01b81526004016107f7939291906118f7565b6020604051808303816000875af1158015610816573d6000803e3d6000fd5b505050506040513d601f19601f8201168201806040525081019061083a919061174f565b610879576040517f08c379a0000000000000000000000000000000000000000000000000000000008152600401610870906119e6565b60405180910390fd5b6000600254036108e15761089782846108929190611618565b611216565b9050600081116108dc576040517f08c379a00000000000000000000000000000000000000000000000000000000081526004016108d390611a52565b60405180910390fd5b610970565b60008054600254856108f39190611618565b6108fd9190611689565b90506000600154600254856109129190611618565b61091c9190611689565b90506109288282611290565b92506000831161096d576040517f08c379a000000000000000000000000000000000000000000000000000000000815260040161096490611a52565b60405180910390fd5b50505b80600360003373ffffffffffffffffffffffffffffffffffffffff1673ffffffffffffffffffffffffffffffffffffffff16815260200190815260200160002060008282546109bf9190611a72565b9250508190555080600260008282546109d89190611a72565b92505081905550610a03836000546109f09190611a72565b836001546109fe9190611a72565b611204565b3373ffffffffffffffffffffffffffffffffffffffff167f64b83944e79c3ce8d4c297411de637c3e102d064677aac0c163976ebdcd6f50e848484604051610a4d93929190611854565b60405180910390a292915050565b60008073ffffffffffffffffffffffffffffffffffffffff168273ffffffffffffffffffffffffffffffffffffffff1603610acb576040517f08c379a0000000000000000000000000000000000000000000000000000000008152600401610ac290611af2565b60405180910390fd5b60008411610b0e576040517f08c379a0000000000000000000000000000000000000000000000000000000008152600401610b0590611b5e565b60405180910390fd5b7f000000000000000000000000000000000000000000000000000000000000000073ffffffffffffffffffffffffffffffffffffffff168573ffffffffffffffffffffffffffffffffffffffff161480610bb357507f000000000000000000000000000000000000000000000000000000000000000073ffffffffffffffffffffffffffffffffffffffff168573ffffffffffffffffffffffffffffffffffffffff16145b610bf2576040517f08c379a0000000000000000000000000000000000000000000000000000000008152600401610be990611bca565b60405180910390fd5b60007f000000000000000000000000000000000000000000000000000000000000000073ffffffffffffffffffffffffffffffffffffffff168673ffffffffffffffffffffffffffffffffffffffff1614610c6d577f0000000000000000000000000000000000000000000000000000000000000000610c8f565b7f00000000000000000000000000000000000000000000000000000000000000005b9050610c9b8587610faa565b915083821015610ce0576040517f08c379a0000000000000000000000000000000000000000000000000000000008152600401610cd790611c36565b60405180910390fd5b8573ffffffffffffffffffffffffffffffffffffffff166323b872dd3330886040518463ffffffff1660e01b8152600401610d1d939291906118f7565b6020604051808303816000875af1158015610d3c573d6000803e3d6000fd5b505050506040513d601f19601f82011682018060405250810190610d60919061174f565b610d9f576040517f08c379a0000000000000000000000000000000000000000000000000000000008152600401610d9690611ca2565b60405180910390fd5b8073ffffffffffffffffffffffffffffffffffffffff1663a9059cbb84846040518363ffffffff1660e01b8152600401610dda9291906116ee565b6020604051808303816000875af1158015610df9573d6000803e3d6000fd5b505050506040513d601f19601f82011682018060405250810190610e1d919061174f565b610e5c576040517f08c379a0000000000000000000000000000000000000000000000000000000008152600401610e5390611d0e565b60405180910390fd5b7f000000000000000000000000000000000000000000000000000000000000000073ffffffffffffffffffffffffffffffffffffffff168673ffffffffffffffffffffffffffffffffffffffff1603610ed857610ed385600054610ec09190611a72565b83600154610ece91906116ba565b611204565b610efd565b610efc82600054610ee991906116ba565b86600154610ef79190611a72565b611204565b5b8073ffffffffffffffffffffffffffffffffffffffff168673ffffffffffffffffffffffffffffffffffffffff163373ffffffffffffffffffffffffffffffffffffffff167f6135b536e33070976edb6dc1ecd6f9235b0d3a24970b028cd9dc6994bd0d5ec0888688604051610f7593929190611d2e565b60405180910390a450949350505050565b7f000000000000000000000000000000000000000000000000000000000000000081565b6000808311610fee576040517f08c379a0000000000000000000000000000000000000000000000000000000008152600401610fe590611b5e565b60405180910390fd5b7f000000000000000000000000000000000000000000000000000000000000000073ffffffffffffffffffffffffffffffffffffffff168273ffffffffffffffffffffffffffffffffffffffff16148061109357507f000000000000000000000000000000000000000000000000000000000000000073ffffffffffffffffffffffffffffffffffffffff168273ffffffffffffffffffffffffffffffffffffffff16145b6110d2576040517f08c379a00000000000000000000000000000000000000000000000000000000081526004016110c990611bca565b60405180910390fd5b6000807f000000000000000000000000000000000000000000000000000000000000000073ffffffffffffffffffffffffffffffffffffffff168473ffffffffffffffffffffffffffffffffffffffff16146111335760015460005461113a565b6000546001545b9150915060008211801561114e5750600081115b61118d576040517f08c379a000000000000000000000000000000000000000000000000000000000815260040161118490611db1565b60405180910390fd5b60006127107f00000000000000000000000000000000000000000000000000000000000000006127106111c091906116ba565b876111cb9190611618565b6111d59190611689565b905080836111e39190611a72565b82826111ef9190611618565b6111f99190611689565b935050505092915050565b81600081905550806001819055505050565b6000600382111561127d57819050600060016002846112359190611689565b61123f9190611a72565b90505b8181101561127757809150600281828561125c9190611689565b6112669190611a72565b6112709190611689565b9050611242565b5061128b565b6000821461128a57600190505b5b919050565b600081831061129f57816112a1565b825b905092915050565b600073ffffffffffffffffffffffffffffffffffffffff82169050919050565b60006112d4826112a9565b9050919050565b6112e4816112c9565b82525050565b60006020820190506112ff60008301846112db565b92915050565b6000819050919050565b61131881611305565b82525050565b6000602082019050611333600083018461130f565b92915050565b600080fd5b611347816112c9565b811461135257600080fd5b50565b6000813590506113648161133e565b92915050565b6000602082840312156113805761137f611339565b5b600061138e84828501611355565b91505092915050565b6113a081611305565b81146113ab57600080fd5b50565b6000813590506113bd81611397565b92915050565b6000602082840312156113d9576113d8611339565b5b60006113e7848285016113ae565b91505092915050565b6000604082019050611405600083018561130f565b611412602083018461130f565b9392505050565b600080604083850312156114305761142f611339565b5b600061143e858286016113ae565b925050602061144f858286016113ae565b9150509250929050565b6000806000806080858703121561147357611472611339565b5b600061148187828801611355565b9450506020611492878288016113ae565b93505060406114a3878288016113ae565b92505060606114b487828801611355565b91505092959194509250565b600080604083850312156114d7576114d6611339565b5b60006114e5858286016113ae565b92505060206114f685828601611355565b9150509250929050565b600082825260208201905092915050565b7f7a65726f00000000000000000000000000000000000000000000000000000000600082015250565b6000611547600483611500565b915061155282611511565b602082019050919050565b600060208201905081810360008301526115768161153a565b9050919050565b7f6e6f7420656e6f75676800000000000000000000000000000000000000000000600082015250565b60006115b3600a83611500565b91506115be8261157d565b602082019050919050565b600060208201905081810360008301526115e2816115a6565b9050919050565b7f4e487b7100000000000000000000000000000000000000000000000000000000600052601160045260246000fd5b600061162382611305565b915061162e83611305565b925082820261163c81611305565b91508282048414831517611653576116526115e9565b5b5092915050565b7f4e487b7100000000000000000000000000000000000000000000000000000000600052601260045260246000fd5b600061169482611305565b915061169f83611305565b9250826116af576116ae61165a565b5b828204905092915050565b60006116c582611305565b91506116d083611305565b92508282039050818111156116e8576116e76115e9565b5b92915050565b600060408201905061170360008301856112db565b611710602083018461130f565b9392505050565b60008115159050919050565b61172c81611717565b811461173757600080fd5b50565b60008151905061174981611723565b92915050565b60006020828403121561176557611764611339565b5b60006117738482850161173a565b91505092915050565b7f7430206f75740000000000000000000000000000000000000000000000000000600082015250565b60006117b2600683611500565b91506117bd8261177c565b602082019050919050565b600060208201905081810360008301526117e1816117a5565b9050919050565b7f7431206f75740000000000000000000000000000000000000000000000000000600082015250565b600061181e600683611500565b9150611829826117e8565b602082019050919050565b6000602082019050818103600083015261184d81611811565b9050919050565b6000606082019050611869600083018661130f565b611876602083018561130f565b611883604083018461130f565b949350505050565b7f7a65726f20616d6f756e74730000000000000000000000000000000000000000600082015250565b60006118c1600c83611500565b91506118cc8261188b565b602082019050919050565b600060208201905081810360008301526118f0816118b4565b9050919050565b600060608201905061190c60008301866112db565b61191960208301856112db565b611926604083018461130f565b949350505050565b7f7430207466000000000000000000000000000000000000000000000000000000600082015250565b6000611964600583611500565b915061196f8261192e565b602082019050919050565b6000602082019050818103600083015261199381611957565b9050919050565b7f7431207466000000000000000000000000000000000000000000000000000000600082015250565b60006119d0600583611500565b91506119db8261199a565b602082019050919050565b600060208201905081810360008301526119ff816119c3565b9050919050565b7f6c69713d30000000000000000000000000000000000000000000000000000000600082015250565b6000611a3c600583611500565b9150611a4782611a06565b602082019050919050565b60006020820190508181036000830152611a6b81611a2f565b9050919050565b6000611a7d82611305565b9150611a8883611305565b9250828201905080821115611aa057611a9f6115e9565b5b92915050565b7f7a65726f20746f00000000000000000000000000000000000000000000000000600082015250565b6000611adc600783611500565b9150611ae782611aa6565b602082019050919050565b60006020820190508181036000830152611b0b81611acf565b9050919050565b7f7a65726f20696e00000000000000000000000000000000000000000000000000600082015250565b6000611b48600783611500565b9150611b5382611b12565b602082019050919050565b60006020820190508181036000830152611b7781611b3b565b9050919050565b7f62616420746f6b656e0000000000000000000000000000000000000000000000600082015250565b6000611bb4600983611500565b9150611bbf82611b7e565b602082019050919050565b60006020820190508181036000830152611be381611ba7565b9050919050565b7f736c697070616765000000000000000000000000000000000000000000000000600082015250565b6000611c20600883611500565b9150611c2b82611bea565b602082019050919050565b60006020820190508181036000830152611c4f81611c13565b9050919050565b7f696e207466000000000000000000000000000000000000000000000000000000600082015250565b6000611c8c600583611500565b9150611c9782611c56565b602082019050919050565b60006020820190508181036000830152611cbb81611c7f565b9050919050565b7f6f75742074660000000000000000000000000000000000000000000000000000600082015250565b6000611cf8600683611500565b9150611d0382611cc2565b602082019050919050565b60006020820190508181036000830152611d2781611ceb565b9050919050565b6000606082019050611d43600083018661130f565b611d50602083018561130f565b611d5d60408301846112db565b949350505050565b7f6e6f206c69710000000000000000000000000000000000000000000000000000600082015250565b6000611d9b600683611500565b9150611da682611d65565b602082019050919050565b60006020820190508181036000830152611dca81611d8e565b905091905056fea264697066735822122025fcc44320eec3d261e518481b694fd35eadbbee20916460a27a39927abf2b9b64736f6c63430008140033",
  "linkReferences": {},
  "deployedLinkReferences": {}
}