{
  "_format": "hh-sol-artifact-1",
  "contractName": "DexAggregator",
  "sourceName": "contracts/DexAggregator.sol",
  "abi": [
    {
      "inputs": [],
      "stateMutability": "nonpayable",
      "type": "constructor"
    },
    {
      "inputs": [
        {
          "internalType": "address",
          "name": "owner",
          "type": "address"
        }
      ],
      "name": "OwnableInvalidOwner",
      "type": "error"
    },
    {
      "inputs": [
        {
          "internalType": "address",
          "name": "account",
          "type": "address"
        }
      ],
      "name": "OwnableUnauthorizedAccount",
      "type": "error"
    },
    {
      "anonymous": false,
      "inputs": [
        {
          "indexed": true,
          "internalType": "address",
          "name": "previousOwner",
          "type": "address"
        },
        {
          "indexed": true,
          "internalType": "address",
          "name": "newOwner",
          "type": "address"
        }
      ],
      "name": "OwnershipTransferred",
      "type": "event"
    },
    {
      "anonymous": false,
      "inputs": [
        {
          "indexed": true,
          "internalType": "address",
          "name": "tokenA",
          "type": "address"
        },
        {
          "indexed": true,
          "internalType": "address",
          "name": "tokenB",
          "type": "address"
        },
        {
          "indexed": false,
          "internalType": "address",
          "name": "pool",
          "type": "address"
        }
      ],
      "name": "PoolRegistered",
      "type": "event"
    },
    {
      "anonymous": false,
      "inputs": [
        {
          "indexed": true,
          "internalType": "address",
          "name": "user",
          "type": "address"
        },
        {
          "indexed": true,
          "internalType": "address",
          "name": "tokenIn",
          "type": "address"
        },
        {
          "indexed": true,
          "internalType": "address",
          "name": "tokenOut",
          "type": "address"
        },
        {
          "indexed": false,
          "internalType": "uint256",
          "name": "amountIn",
          "type": "uint256"
        },
        {
          "indexed": false,
          "internalType": "uint256",
          "name": "amountOut",
          "type": "uint256"
        },
        {
          "indexed": false,
          "internalType": "address",
          "name": "recipient",
          "type": "address"
        },
        {
          "indexed": false,
          "internalType": "address[]",
          "name": "path",
          "type": "address[]"
        }
      ],
      "name": "RoutedSwap",
      "type": "event"
    },
    {
      "anonymous": false,
      "inputs": [
        {
          "indexed": true,
          "internalType": "address",
          "name": "token",
          "type": "address"
        }
      ],
      "name": "TokenRegistered",
      "type": "event"
    },
    {
      "inputs": [
        {
          "internalType": "address",
          "name": "",
          "type": "address"
        }
      ],
      "name": "isToken",
      "outputs": [
        {
          "internalType": "bool",
          "name": "",
          "type": "bool"
        }
      ],
      "stateMutability": "view",
      "type": "function"
    },
    {
      "inputs": [],
      "name": "owner",
      "outputs": [
        {
          "internalType": "address",
          "name": "",
          "type": "address"
        }
      ],
      "stateMutability": "view",
      "type": "function"
    },
    {
      "inputs": [
        {
          "internalType": "address",
          "name": "",
          "type": "address"
        },
        {
          "internalType": "address",
          "name": "",
          "type": "address"
        }
      ],
      "name": "poolOf",
      "outputs": [
        {
          "internalType": "address",
          "name": "",
          "type": "address"
        }
      ],
      "stateMutability": "view",
      "type": "function"
    },
    {
      "inputs": [
        {
          "internalType": "address",
          "name": "tokenIn",
          "type": "address"
        },
        {
          "internalType": "address",
          "name": "tokenOut",
          "type": "address"
        },
        {
          "internalType": "uint256",
          "name": "amountIn",
          "type": "uint256"
        }
      ],
      "name": "quoteBest",
      "outputs": [
        {
          "internalType": "address[]",
          "name": "bestPath",
          "type": "address[]"
        },
        {
          "internalType": "uint256",
          "name": "bestOut",
          "type": "uint256"
        }
      ],
      "stateMutability": "view",
      "type": "function"
    },
    {
      "inputs": [
        {
          "internalType": "address",
          "name": "tokenA",
          "type": "address"
        },
        {
          "internalType": "address",
          "name": "tokenB",
          "type": "address"
        },
        {
          "internalType": "address",
          "name": "pool",
          "type": "address"
        }
      ],
      "name": "registerPool",
      "outputs": [],
      "stateMutability": "nonpayable",
      "type": "function"
    },
    {
      "inputs": [
        {
          "internalType": "address",
          "name": "token",
          "type": "address"
        }
      ],
      "name": "registerToken",
      "outputs": [],
      "stateMutability": "nonpayable",
      "type": "function"
    },
    {
      "inputs": [],
      "name": "renounceOwnership",
      "outputs": [],
      "stateMutability": "nonpayable",
      "type": "function"
    },
    {
      "inputs": [
        {
          "internalType": "uint256",
          "name": "amountIn",
          "type": "uint256"
        },
        {
          "internalType": "uint256",
          "name": "minOut",
          "type": "uint256"
        },
        {
          "internalType": "address[]",
          "name": "path",
          "type": "address[]"
        },
        {
          "internalType": "address",
          "name": "recipient",
          "type": "address"
        }
      ],
      "name": "swapExactTokensForTokens",
      "outputs": [
        {
          "internalType": "uint256",
          "name": "amountOutFinal",
          "type": "uint256"
        }
      ],
      "stateMutability": "nonpayable",
      "type": "function"
    },
    {
      "inputs": [
        {
          "internalType": "uint256",
          "name": "",
          "type": "uint256"
        }
      ],
      "name": "tokens",
      "outputs": [
        {
          "internalType": "address",
          "name": "",
          "type": "address"
        }
      ],
      "stateMutability": "view",
      "type": "function"
    },
    {
      "inputs": [],
      "name": "tokensCount",
      "outputs": [
        {
          "internalType": "uint256",
          "name": "",
          "type": "uint256"
        }
      ],
      "stateMutability": "view",
      "type": "function"
    },
    {
      "inputs": [
        {
          "internalType": "address",
          "name": "newOwner",
          "type": "address"
        }
      ],
      "name": "transferOwnership",
      "outputs": [],
      "stateMutability": "nonpayable",
      "type": "function"
    }
  ],
  "bytecode": "0x60806040523480156200001157600080fd5b5033600073ffffffffffffffffffffffffffffffffffffffff168173ffffffffffffffffffffffffffffffffffffffff1603620000885760006040517f1e4fbdf70000000000000000000000000000000000000000000000000000000081526004016200007f9190620001a9565b60405180910390fd5b6200009981620000a060201b60201c565b50620001c6565b60008060009054906101000a900473ffffffffffffffffffffffffffffffffffffffff169050816000806101000a81548173ffffffffffffffffffffffffffffffffffffffff021916908373ffffffffffffffffffffffffffffffffffffffff1602179055508173ffffffffffffffffffffffffffffffffffffffff168173ffffffffffffffffffffffffffffffffffffffff167f8be0079c531659141344cd1fd0a4f28419497f9722a3daafe3b4186f6b6457e060405160405180910390a35050565b600073ffffffffffffffffffffffffffffffffffffffff82169050919050565b6000620001918262000164565b9050919050565b620001a38162000184565b82525050565b6000602082019050620001c0600083018462000198565b92915050565b6127c980620001d66000396000f3fe608060405234801561001057600080fd5b50600436106100a95760003560e01c80634f64b2be116100715780634f64b2be14610176578063715018a6146101a65780637c6ce286146101b05780638da5cb5b146101e1578063a64ed8ba146101ff578063f2fde38b1461021d576100a9565b806309824a80146100ae57806319f37361146100ca57806326da5c81146100fa5780632c23003d1461012a578063472b43f314610146575b600080fd5b6100c860048036038101906100c39190611c7b565b610239565b005b6100e460048036038101906100df9190611c7b565b61043e565b6040516100f19190611cc3565b60405180910390f35b610114600480360381019061010f9190611cde565b61045e565b6040516101219190611d2d565b60405180910390f35b610144600480360381019061013f9190611d48565b6104a0565b005b610160600480360381019061015b9190611e36565b61080e565b60405161016d9190611ecd565b60405180910390f35b610190600480360381019061018b9190611ee8565b610e7b565b60405161019d9190611d2d565b60405180910390f35b6101ae610eba565b005b6101ca60048036038101906101c59190611f15565b610ece565b6040516101d8929190612026565b60405180910390f35b6101e9611702565b6040516101f69190611d2d565b60405180910390f35b61020761172b565b6040516102149190611ecd565b60405180910390f35b61023760048036038101906102329190611c7b565b611738565b005b6102416117be565b600073ffffffffffffffffffffffffffffffffffffffff168173ffffffffffffffffffffffffffffffffffffffff16036102b0576040517f08c379a00000000000000000000000000000000000000000000000000000000081526004016102a7906120b3565b60405180910390fd5b600360008273ffffffffffffffffffffffffffffffffffffffff1673ffffffffffffffffffffffffffffffffffffffff16815260200190815260200160002060009054906101000a900460ff161561033d576040517f08c379a00000000000000000000000000000000000000000000000000000000081526004016103349061211f565b60405180910390fd5b6001600360008373ffffffffffffffffffffffffffffffffffffffff1673ffffffffffffffffffffffffffffffffffffffff16815260200190815260200160002060006101000a81548160ff0219169083151502179055506002819080600181540180825580915050600190039060005260206000200160009091909190916101000a81548173ffffffffffffffffffffffffffffffffffffffff021916908373ffffffffffffffffffffffffffffffffffffffff1602179055508073ffffffffffffffffffffffffffffffffffffffff167f158412daecdc1456d01568828bcdb18464cc7f1ce0215ddbc3f3cfede9d1e63d60405160405180910390a250565b60036020528060005260406000206000915054906101000a900460ff1681565b60016020528160005260406000206020528060005260406000206000915091509054906101000a900473ffffffffffffffffffffffffffffffffffffffff1681565b6104a86117be565b8173ffffffffffffffffffffffffffffffffffffffff168373ffffffffffffffffffffffffffffffffffffffff1603610516576040517f08c379a000000000000000000000000000000000000000000000000000000000815260040161050d9061218b565b60405180910390fd5b600073ffffffffffffffffffffffffffffffffffffffff168373ffffffffffffffffffffffffffffffffffffffff16141580156105805750600073ffffffffffffffffffffffffffffffffffffffff168273ffffffffffffffffffffffffffffffffffffffff1614155b6105bf576040517f08c379a00000000000000000000000000000000000000000000000000000000081526004016105b6906120b3565b60405180910390fd5b600073ffffffffffffffffffffffffffffffffffffffff168173ffffffffffffffffffffffffffffffffffffffff160361062e576040517f08c379a0000000000000000000000000000000000000000000000000000000008152600401610625906121f7565b60405180910390fd5b80600160008573ffffffffffffffffffffffffffffffffffffffff1673ffffffffffffffffffffffffffffffffffffffff16815260200190815260200160002060008473ffffffffffffffffffffffffffffffffffffffff1673ffffffffffffffffffffffffffffffffffffffff16815260200190815260200160002060006101000a81548173ffffffffffffffffffffffffffffffffffffffff021916908373ffffffffffffffffffffffffffffffffffffffff16021790555080600160008473ffffffffffffffffffffffffffffffffffffffff1673ffffffffffffffffffffffffffffffffffffffff16815260200190815260200160002060008573ffffffffffffffffffffffffffffffffffffffff1673ffffffffffffffffffffffffffffffffffffffff16815260200190815260200160002060006101000a81548173ffffffffffffffffffffffffffffffffffffffff021916908373ffffffffffffffffffffffffffffffffffffffff1602179055508173ffffffffffffffffffffffffffffffffffffffff168373ffffffffffffffffffffffffffffffffffffffff167f61afef2e121f71511fab2583c5ac49a5dc1d7a8ad8ad91c44c8465f073a73ac4836040516108019190611d2d565b60405180910390a3505050565b60008073ffffffffffffffffffffffffffffffffffffffff168273ffffffffffffffffffffffffffffffffffffffff160361087e576040517f08c379a000000000000000000000000000000000000000000000000000000000815260040161087590612263565b60405180910390fd5b600086116108c1576040517f08c379a00000000000000000000000000000000000000000000000000000000081526004016108b8906122cf565b60405180910390fd5b600284849050101580156108d9575060048484905011155b610918576040517f08c379a000000000000000000000000000000000000000000000000000000000815260040161090f9061233b565b60405180910390fd5b838360018686905061092a919061238a565b81811061093a576109396123be565b5b905060200201602081019061094f9190611c7b565b73ffffffffffffffffffffffffffffffffffffffff1684846000818110610979576109786123be565b5b905060200201602081019061098e9190611c7b565b73ffffffffffffffffffffffffffffffffffffffff16036109e4576040517f08c379a00000000000000000000000000000000000000000000000000000000081526004016109db9061218b565b60405180910390fd5b6000848460008181106109fa576109f96123be565b5b9050602002016020810190610a0f9190611c7b565b905060008585600188889050610a25919061238a565b818110610a3557610a346123be565b5b9050602002016020810190610a4a9190611c7b565b90508173ffffffffffffffffffffffffffffffffffffffff166323b872dd33308b6040518463ffffffff1660e01b8152600401610a89939291906123ed565b6020604051808303816000875af1158015610aa8573d6000803e3d6000fd5b505050506040513d601f19601f82011682018060405250810190610acc9190612450565b610b0b576040517f08c379a0000000000000000000000000000000000000000000000000000000008152600401610b02906124c9565b60405180910390fd5b600088905060005b87879050600182610b2491906124e9565b1015610de0576000888883818110610b3f57610b3e6123be565b5b9050602002016020810190610b549190611c7b565b905060008989600185610b6791906124e9565b818110610b7757610b766123be565b5b9050602002016020810190610b8c9190611c7b565b90506000610b9a8383611845565b9050600073ffffffffffffffffffffffffffffffffffffffff168173ffffffffffffffffffffffffffffffffffffffff1603610c0b576040517f08c379a0000000000000000000000000000000000000000000000000000000008152600401610c0290612569565b60405180910390fd5b8273ffffffffffffffffffffffffffffffffffffffff1663095ea7b38260006040518363ffffffff1660e01b8152600401610c479291906125ce565b6020604051808303816000875af1158015610c66573d6000803e3d6000fd5b505050506040513d601f19601f82011682018060405250810190610c8a9190612450565b508273ffffffffffffffffffffffffffffffffffffffff1663095ea7b382876040518363ffffffff1660e01b8152600401610cc69291906125f7565b6020604051808303816000875af1158015610ce5573d6000803e3d6000fd5b505050506040513d601f19601f82011682018060405250810190610d099190612450565b5060008b8b9050600286610d1d91906124e9565b149050600081610d2d5730610d2f565b8a5b9050600082610d3f576000610d41565b8e5b90508373ffffffffffffffffffffffffffffffffffffffff1663a6220b66878a84866040518563ffffffff1660e01b8152600401610d829493929190612620565b6020604051808303816000875af1158015610da1573d6000803e3d6000fd5b505050506040513d601f19601f82011682018060405250810190610dc5919061267a565b97505050505050508080610dd8906126a7565b915050610b13565b508093508173ffffffffffffffffffffffffffffffffffffffff168373ffffffffffffffffffffffffffffffffffffffff163373ffffffffffffffffffffffffffffffffffffffff167fab2ca27cea4c3dbc48bcbec17fca8b0ac62aff1dfa4bcea5f0b09b899a896d6c8c888a610e578e8e6118ec565b604051610e6794939291906126ef565b60405180910390a450505095945050505050565b60028181548110610e8b57600080fd5b906000526020600020016000915054906101000a900473ffffffffffffffffffffffffffffffffffffffff1681565b610ec26117be565b610ecc60006119d9565b565b606060008073ffffffffffffffffffffffffffffffffffffffff168573ffffffffffffffffffffffffffffffffffffffff1614158015610f3b5750600073ffffffffffffffffffffffffffffffffffffffff168473ffffffffffffffffffffffffffffffffffffffff1614155b610f7a576040517f08c379a0000000000000000000000000000000000000000000000000000000008152600401610f71906120b3565b60405180910390fd5b8373ffffffffffffffffffffffffffffffffffffffff168573ffffffffffffffffffffffffffffffffffffffff1603610fe8576040517f08c379a0000000000000000000000000000000000000000000000000000000008152600401610fdf9061218b565b60405180910390fd5b6000831161102b576040517f08c379a0000000000000000000000000000000000000000000000000000000008152600401611022906122cf565b60405180910390fd5b6000600267ffffffffffffffff8111156110485761104761273b565b5b6040519080825280602002602001820160405280156110765781602001602082028036833780820191505090505b509050858160008151811061108e5761108d6123be565b5b602002602001019073ffffffffffffffffffffffffffffffffffffffff16908173ffffffffffffffffffffffffffffffffffffffff168152505084816001815181106110dd576110dc6123be565b5b602002602001019073ffffffffffffffffffffffffffffffffffffffff16908173ffffffffffffffffffffffffffffffffffffffff168152505060006111238286611a9d565b905082811115611134578092508193505b505060005b6002805490508110156113685760006002828154811061115c5761115b6123be565b5b9060005260206000200160009054906101000a900473ffffffffffffffffffffffffffffffffffffffff1690508673ffffffffffffffffffffffffffffffffffffffff168173ffffffffffffffffffffffffffffffffffffffff1614806111ee57508573ffffffffffffffffffffffffffffffffffffffff168173ffffffffffffffffffffffffffffffffffffffff16145b156111f95750611355565b6000600367ffffffffffffffff8111156112165761121561273b565b5b6040519080825280602002602001820160405280156112445781602001602082028036833780820191505090505b509050878160008151811061125c5761125b6123be565b5b602002602001019073ffffffffffffffffffffffffffffffffffffffff16908173ffffffffffffffffffffffffffffffffffffffff168152505081816001815181106112ab576112aa6123be565b5b602002602001019073ffffffffffffffffffffffffffffffffffffffff16908173ffffffffffffffffffffffffffffffffffffffff168152505086816002815181106112fa576112f96123be565b5b602002602001019073ffffffffffffffffffffffffffffffffffffffff16908173ffffffffffffffffffffffffffffffffffffffff168152505060006113408288611a9d565b905084811115611351578094508195505b5050505b8080611360906126a7565b915050611139565b5060005b6002805490508110156116f95760006002828154811061138f5761138e6123be565b5b9060005260206000200160009054906101000a900473ffffffffffffffffffffffffffffffffffffffff1690508673ffffffffffffffffffffffffffffffffffffffff168173ffffffffffffffffffffffffffffffffffffffff16148061142157508573ffffffffffffffffffffffffffffffffffffffff168173ffffffffffffffffffffffffffffffffffffffff16145b1561142c57506116e6565b60005b6002805490508110156116e357600060028281548110611452576114516123be565b5b9060005260206000200160009054906101000a900473ffffffffffffffffffffffffffffffffffffffff1690508873ffffffffffffffffffffffffffffffffffffffff168173ffffffffffffffffffffffffffffffffffffffff1614806114e457508773ffffffffffffffffffffffffffffffffffffffff168173ffffffffffffffffffffffffffffffffffffffff16145b8061151a57508273ffffffffffffffffffffffffffffffffffffffff168173ffffffffffffffffffffffffffffffffffffffff16145b1561152557506116d0565b6000600467ffffffffffffffff8111156115425761154161273b565b5b6040519080825280602002602001820160405280156115705781602001602082028036833780820191505090505b5090508981600081518110611588576115876123be565b5b602002602001019073ffffffffffffffffffffffffffffffffffffffff16908173ffffffffffffffffffffffffffffffffffffffff168152505083816001815181106115d7576115d66123be565b5b602002602001019073ffffffffffffffffffffffffffffffffffffffff16908173ffffffffffffffffffffffffffffffffffffffff16815250508181600281518110611626576116256123be565b5b602002602001019073ffffffffffffffffffffffffffffffffffffffff16908173ffffffffffffffffffffffffffffffffffffffff16815250508881600381518110611675576116746123be565b5b602002602001019073ffffffffffffffffffffffffffffffffffffffff16908173ffffffffffffffffffffffffffffffffffffffff168152505060006116bb828a611a9d565b9050868111156116cc578096508197505b5050505b80806116db906126a7565b91505061142f565b50505b80806116f1906126a7565b91505061136c565b50935093915050565b60008060009054906101000a900473ffffffffffffffffffffffffffffffffffffffff16905090565b6000600280549050905090565b6117406117be565b600073ffffffffffffffffffffffffffffffffffffffff168173ffffffffffffffffffffffffffffffffffffffff16036117b25760006040517f1e4fbdf70000000000000000000000000000000000000000000000000000000081526004016117a99190611d2d565b60405180910390fd5b6117bb816119d9565b50565b6117c6611c0b565b73ffffffffffffffffffffffffffffffffffffffff166117e4611702565b73ffffffffffffffffffffffffffffffffffffffff161461184357611807611c0b565b6040517f118cdaa700000000000000000000000000000000000000000000000000000000815260040161183a9190611d2d565b60405180910390fd5b565b6000600160008473ffffffffffffffffffffffffffffffffffffffff1673ffffffffffffffffffffffffffffffffffffffff16815260200190815260200160002060008373ffffffffffffffffffffffffffffffffffffffff1673ffffffffffffffffffffffffffffffffffffffff16815260200190815260200160002060009054906101000a900473ffffffffffffffffffffffffffffffffffffffff16905092915050565b60608282905067ffffffffffffffff81111561190b5761190a61273b565b5b6040519080825280602002602001820160405280156119395781602001602082028036833780820191505090505b50905060005b838390508110156119d25783838281811061195d5761195c6123be565b5b90506020020160208101906119729190611c7b565b828281518110611985576119846123be565b5b602002602001019073ffffffffffffffffffffffffffffffffffffffff16908173ffffffffffffffffffffffffffffffffffffffff168152505080806119ca906126a7565b91505061193f565b5092915050565b60008060009054906101000a900473ffffffffffffffffffffffffffffffffffffffff169050816000806101000a81548173ffffffffffffffffffffffffffffffffffffffff021916908373ffffffffffffffffffffffffffffffffffffffff1602179055508173ffffffffffffffffffffffffffffffffffffffff168173ffffffffffffffffffffffffffffffffffffffff167f8be0079c531659141344cd1fd0a4f28419497f9722a3daafe3b4186f6b6457e060405160405180910390a35050565b60008082905060005b8451600182611ab591906124e9565b1015611bff576000858281518110611ad057611acf6123be565b5b60200260200101519050600086600184611aea91906124e9565b81518110611afb57611afa6123be565b5b602002602001015190506000611b118383611845565b9050600073ffffffffffffffffffffffffffffffffffffffff168173ffffffffffffffffffffffffffffffffffffffff1603611b5557600095505050505050611c05565b8073ffffffffffffffffffffffffffffffffffffffff1663f140a35a86856040518363ffffffff1660e01b8152600401611b9092919061276a565b602060405180830381865afa158015611bad573d6000803e3d6000fd5b505050506040513d601f19601f82011682018060405250810190611bd1919061267a565b945060008503611be957600095505050505050611c05565b5050508080611bf7906126a7565b915050611aa6565b50809150505b92915050565b600033905090565b600080fd5b600080fd5b600073ffffffffffffffffffffffffffffffffffffffff82169050919050565b6000611c4882611c1d565b9050919050565b611c5881611c3d565b8114611c6357600080fd5b50565b600081359050611c7581611c4f565b92915050565b600060208284031215611c9157611c90611c13565b5b6000611c9f84828501611c66565b91505092915050565b60008115159050919050565b611cbd81611ca8565b82525050565b6000602082019050611cd86000830184611cb4565b92915050565b60008060408385031215611cf557611cf4611c13565b5b6000611d0385828601611c66565b9250506020611d1485828601611c66565b9150509250929050565b611d2781611c3d565b82525050565b6000602082019050611d426000830184611d1e565b92915050565b600080600060608486031215611d6157611d60611c13565b5b6000611d6f86828701611c66565b9350506020611d8086828701611c66565b9250506040611d9186828701611c66565b9150509250925092565b6000819050919050565b611dae81611d9b565b8114611db957600080fd5b50565b600081359050611dcb81611da5565b92915050565b600080fd5b600080fd5b600080fd5b60008083601f840112611df657611df5611dd1565b5b8235905067ffffffffffffffff811115611e1357611e12611dd6565b5b602083019150836020820283011115611e2f57611e2e611ddb565b5b9250929050565b600080600080600060808688031215611e5257611e51611c13565b5b6000611e6088828901611dbc565b9550506020611e7188828901611dbc565b945050604086013567ffffffffffffffff811115611e9257611e91611c18565b5b611e9e88828901611de0565b93509350506060611eb188828901611c66565b9150509295509295909350565b611ec781611d9b565b82525050565b6000602082019050611ee26000830184611ebe565b92915050565b600060208284031215611efe57611efd611c13565b5b6000611f0c84828501611dbc565b91505092915050565b600080600060608486031215611f2e57611f2d611c13565b5b6000611f3c86828701611c66565b9350506020611f4d86828701611c66565b9250506040611f5e86828701611dbc565b9150509250925092565b600081519050919050565b600082825260208201905092915050565b6000819050602082019050919050565b611f9d81611c3d565b82525050565b6000611faf8383611f94565b60208301905092915050565b6000602082019050919050565b6000611fd382611f68565b611fdd8185611f73565b9350611fe883611f84565b8060005b838110156120195781516120008882611fa3565b975061200b83611fbb565b925050600181019050611fec565b5085935050505092915050565b600060408201905081810360008301526120408185611fc8565b905061204f6020830184611ebe565b9392505050565b600082825260208201905092915050565b7f7a65726f00000000000000000000000000000000000000000000000000000000600082015250565b600061209d600483612056565b91506120a882612067565b602082019050919050565b600060208201905081810360008301526120cc81612090565b9050919050565b7f6578697374730000000000000000000000000000000000000000000000000000600082015250565b6000612109600683612056565b9150612114826120d3565b602082019050919050565b60006020820190508181036000830152612138816120fc565b9050919050565b7f73616d6500000000000000000000000000000000000000000000000000000000600082015250565b6000612175600483612056565b91506121808261213f565b602082019050919050565b600060208201905081810360008301526121a481612168565b9050919050565b7f7a65726f20706f6f6c0000000000000000000000000000000000000000000000600082015250565b60006121e1600983612056565b91506121ec826121ab565b602082019050919050565b60006020820190508181036000830152612210816121d4565b9050919050565b7f7a65726f20726563697069656e74000000000000000000000000000000000000600082015250565b600061224d600e83612056565b915061225882612217565b602082019050919050565b6000602082019050818103600083015261227c81612240565b9050919050565b7f7a65726f20696e00000000000000000000000000000000000000000000000000600082015250565b60006122b9600783612056565b91506122c482612283565b602082019050919050565b600060208201905081810360008301526122e8816122ac565b9050919050565b7f6261642070617468000000000000000000000000000000000000000000000000600082015250565b6000612325600883612056565b9150612330826122ef565b602082019050919050565b6000602082019050818103600083015261235481612318565b9050919050565b7f4e487b7100000000000000000000000000000000000000000000000000000000600052601160045260246000fd5b600061239582611d9b565b91506123a083611d9b565b92508282039050818111156123b8576123b761235b565b5b92915050565b7f4e487b7100000000000000000000000000000000000000000000000000000000600052603260045260246000fd5b60006060820190506124026000830186611d1e565b61240f6020830185611d1e565b61241c6040830184611ebe565b949350505050565b61242d81611ca8565b811461243857600080fd5b50565b60008151905061244a81612424565b92915050565b60006020828403121561246657612465611c13565b5b60006124748482850161243b565b91505092915050565b7f70756c6c20696e00000000000000000000000000000000000000000000000000600082015250565b60006124b3600783612056565b91506124be8261247d565b602082019050919050565b600060208201905081810360008301526124e2816124a6565b9050919050565b60006124f482611d9b565b91506124ff83611d9b565b92508282019050808211156125175761251661235b565b5b92915050565b7f6e6f20706f6f6c00000000000000000000000000000000000000000000000000600082015250565b6000612553600783612056565b915061255e8261251d565b602082019050919050565b6000602082019050818103600083015261258281612546565b9050919050565b6000819050919050565b6000819050919050565b60006125b86125b36125ae84612589565b612593565b611d9b565b9050919050565b6125c88161259d565b82525050565b60006040820190506125e36000830185611d1e565b6125f060208301846125bf565b9392505050565b600060408201905061260c6000830185611d1e565b6126196020830184611ebe565b9392505050565b60006080820190506126356000830187611d1e565b6126426020830186611ebe565b61264f6040830185611ebe565b61265c6060830184611d1e565b95945050505050565b60008151905061267481611da5565b92915050565b6000602082840312156126905761268f611c13565b5b600061269e84828501612665565b91505092915050565b60006126b282611d9b565b91507fffffffffffffffffffffffffffffffffffffffffffffffffffffffffffffffff82036126e4576126e361235b565b5b600182019050919050565b60006080820190506127046000830187611ebe565b6127116020830186611ebe565b61271e6040830185611d1e565b81810360608301526127308184611fc8565b905095945050505050565b7f4e487b7100000000000000000000000000000000000000000000000000000000600052604160045260246000fd5b600060408201905061277f6000830185611ebe565b61278c6020830184611d1e565b939250505056fea2646970667358221220bc573e54716e300535e7345cb95dc285e354d5a9f6b1ef213182ba1f717fc54264736f6c63430008140033",
  "linkReferences": {},
  "deployedLinkReferences": {}
}